:100000000C942A000C94DC080C9447000C944700D4
:100010000C9447000C9447000C9447000C94470044
:100020000C9447000C9447000C94C81A0C94831A43
:100030000C9447000C943B1A0C9447000C94470016
:100040000C9438070C9447000C9447000C9447001C
:100050000C94470011241FBECFE5D8E0DEBFCDBF12
:1000600011E0A0E6B0E0E4ECF7E302C005900D92E9
:10007000A436B107D9F711E0A4E6B1E001C01D92A2
:10008000AB37B107E1F70E945A090C94E01B0C94BE
:100090000000EF92FF920F931F937B018C0120E0F1
:1000A00030E040E05FE40E94F50388238CF0C80153
:1000B000B70120E030E040E05FE40E94C1010E940F
:1000C00055049B01AC01205030404040504806C0D0
:1000D000C801B7010E9455049B01AC01B901CA01D6
:1000E0001F910F91FF90EF900895A0E0B0E0EBE733
:1000F000F0E00C94A91BDC012B01FA019C919230D9
:1001000008F439C1EB018881823008F433C194309E
:1001100069F4843009F02FC111969C91119789815F
:10012000981709F428C1ABE5B1E025C1843009F482
:1001300021C18230A9F4923009F01DC19A01AD01AC
:1001400088E0EA010990AE01E90109929E0181501F
:10015000C1F7E201898111969C918923818308C1AD
:10016000923009F407C112962D903C901397EB0141
:100170008A819B811496AD90BD90CD90DC901797AD
:10018000EC80FD800E811F819101281B390BB90184
:1001900037FF04C066277727621B730B6032710537
:1001A0000CF061C0121613066CF537014801062EDB
:1001B00004C096948794779467940A94D2F721E0C8
:1001C00030E040E050E004C0220F331F441F551FB1
:1001D0006A95D2F721503040404050402E213F21B7
:1001E00040235123211531054105510521F021E01E
:1001F00030E040E050E079018A01E628F72808293C
:1002000019293CC0232BD1F1260E371E350146019A
:10021000062E04C096948794779467940A94D2F734
:1002200021E030E040E050E004C0220F331F441FC3
:10023000551F6A95D2F721503040404050402A2146
:100240003B214C215D21211531054105510521F04E
:1002500021E030E040E050E059016A01A628B728CB
:10026000C828D9280BC0821593052CF01C01AA249C
:10027000BB24650103C0EE24FF24870111969C91E5
:10028000D20111968C91981709F445C0992339F041
:10029000A80197012A193B094C095D0906C0A6016E
:1002A00095012E193F09400B510B57FD08C01182D3
:1002B0003382228224833583468357831DC081E0A5
:1002C00081833382228288279927DC01821B930B4A
:1002D000A40BB50B84839583A683B7830DC0220F2F
:1002E000331F441F551F24833583468357838281E0
:1002F000938101979383828324813581468157813D
:10030000DA01C9010197A109B1098F5F9F4FAF4F72
:10031000BF4328F30BC0918333822282EA0CFB1C7B
:100320000C1D1D1DE482F5820683178383E0808304
:10033000248135814681578157FF1AC0C901AA27F8
:1003400097FDA095BA2F81709070A070B0705695EF
:10035000479537952795822B932BA42BB52B848318
:100360009583A683B7838281938101969383828349
:10037000DF0101C0D201CD01CDB7DEB7E2E10C94BF
:10038000C51BA0E2B0E0E7ECF1E00C94B51B69837B
:100390007A838B839C832D833E834F835887E9E048
:1003A000EE2EF12CEC0EFD1ECE010196B7010E943F
:1003B0007E058E010F5E1F4FCE010596B8010E948B
:1003C0007E058A8991E089278A8BC701B801AE0131
:1003D000475E5F4F0E9475000E94A904A096E6E068
:1003E0000C94D11BA0E2B0E0E8EFF1E00C94B51B57
:1003F00069837A838B839C832D833E834F835887C5
:10040000F9E0EF2EF12CEC0EFD1ECE010196B701A6
:100410000E947E058E010F5E1F4FCE010596B8012A
:100420000E947E05C701B801AE01475E5F4F0E9482
:1004300075000E94A904A096E6E00C94D11BA0E2EE
:10044000B0E0E5E2F2E00C94A91B69837A838B8328
:100450009C832D833E834F835887CE010196BE0136
:10046000675F7F4F0E947E05CE010596BE016F5EDD
:100470007F4F0E947E059985923088F0898982306D
:10048000C8F0943019F4823051F404C0843029F457
:10049000923081F48BE591E0C6C0923049F420E0BF
:1004A0009A858A89981321E02A87CE010996BBC0D4
:1004B000823049F420E09A858A89981321E02A8BBA
:1004C000CE014196B0C02D843E844F8458886D88FB
:1004D0007E888F88988CEE24FF248701AA24BB2471
:1004E000650140E050E060E070E0E0E0F0E0C10174
:1004F00081709070892BE9F0E60CF71C081D191D1E
:100500009A01AB012A0D3B1D4C1D5D1D80E090E062
:10051000A0E0B0E0E614F7040805190520F481E036
:1005200090E0A0E0B0E0BA01A901480F591F6A1F8E
:100530007B1FAA0CBB1CCC1CDD1C97FE08C081E0F5
:1005400090E0A0E0B0E0A82AB92ACA2ADB2A3196B6
:10055000E032F10549F0660C771C881C991C569412
:10056000479437942794C3CFFA85EA892B893C892D
:100570008B859C85280F391F2E5F3F4F17C0CA01FE
:1005800081709070892B61F016950795F794E79428
:1005900080E090E0A0E0B0E8E82AF92A0A2B1B2BC3
:1005A00076956795579547952F5F3F4F77FDE7CF36
:1005B0000CC0440F551F661F771F17FD4160EE0CDE
:1005C000FF1C001F111F21503040403090E05907A0
:1005D00090E0690790E4790760F32B8F3C8FDB0193
:1005E000CA018F779070A070B07080349105A1051A
:1005F000B10561F447FD0AC0E114F10401051105DC
:1006000029F0405C5F4F6F4F7F4F40781A8EFE1786
:1006100011F081E08A8F4D8F5E8F6F8F78A383E01A
:10062000898FCE0149960E94A904A096E2E10C941C
:10063000C51BA8E1B0E0EFE1F3E00C94B11B6983C6
:100640007A838B839C832D833E834F835887B9E0C5
:10065000EB2EF12CEC0EFD1ECE010196B7010E948F
:100660007E058E010F5E1F4FCE010596B8010E94D8
:100670007E052985223008F47EC03989323010F495
:10068000B8017CC08A859A8989278A87243011F02D
:10069000223031F4231709F06EC06BE571E06EC0B3
:1006A000343039F41D861E861F86188A1C861B86E8
:1006B00004C0323021F484E08987B7015FC02B8504
:1006C0003C858B899C89281B390B3C872B87ED84C3
:1006D000FE840F851889AD88BE88CF88D88CEA142F
:1006E000FB040C051D0540F4EE0CFF1C001F111F40
:1006F000215030403C872B8720E030E040E050E044
:1007000080E090E0A0E0B0E460E070E0EA14FB0478
:100710000C051D0540F0282B392B4A2B5B2BEA18C2
:10072000FB080C091D09B695A79597958795EE0CC2
:10073000FF1C001F111F6F5F7F4F6F31710531F775
:10074000DA01C9018F779070A070B0708034910584
:10075000A105B10561F427FD0AC0E114F10401050A
:10076000110529F0205C3F4F4F4F5F4F20782D87B8
:100770003E874F87588BBE01675F7F4FCB010E943A
:10078000A9046896EAE00C94CD1BA8E1B0E0EBEC7C
:10079000F3E00C94B51B69837A838B839C832D8350
:1007A0003E834F83588789E0E82EF12CEC0EFD1E26
:1007B000CE010196B7010E947E058E010F5E1F4F8C
:1007C000CE010596B8010E947E058985823040F0F1
:1007D0008989823028F0C701B8010E94F60501C05E
:1007E0008FEF6896E6E00C94D11BA8E1B0E0EBEF48
:1007F000F3E00C94B51B69837A838B839C832D83F0
:100800003E834F83588789E0E82EF12CEC0EFD1EC5
:10081000CE010196B7010E947E058E010F5E1F4F2B
:10082000CE010596B8010E947E058985823040F090
:100830008989823028F0C701B8010E94F60501C0FD
:100840008FEF6896E6E00C94D11BA8E1B0E0EBE2F4
:10085000F4E00C94B51B69837A838B839C832D838E
:100860003E834F83588789E0E82EF12CEC0EFD1E65
:10087000CE010196B7010E947E058E010F5E1F4FCB
:10088000CE010596B8010E947E058985823040F030
:100890008989823028F0C701B8010E94F60501C09D
:1008A00081E06896E6E00C94D11BACE0B0E0EBE5AB
:1008B000F4E00C94B91B69837A838B839C83CE010B
:1008C0000196BE016B5F7F4F0E947E058D81823055
:1008D00061F1823050F1843021F48E81882351F10E
:1008E0002EC02F81388537FD20C06E812F31310514
:1008F0001CF06623F9F023C08EE190E0821B930B7D
:1009000029853A854B855C8504C056954795379572
:1009100027958A95D2F76623B1F05095409530958A
:1009200021953F4F4F4F5F4F0EC020E030E040E039
:1009300050E009C02FEF3FEF4FEF5FE704C020E02A
:1009400030E040E050E8B901CA012C96E2E00C9496
:10095000D51BDF92EF92FF920F931F93FC01E4806F
:10096000F58006811781D1808081823048F480E053
:1009700090E0A0E1B0E0E82AF92A0A2B1B2BA5C0E1
:10098000843009F49FC0823021F4EE24FF248701D3
:1009900005C0E114F1040105110519F4E0E0F0E0EF
:1009A00096C0628173819FEF623879070CF05BC05B
:1009B00022E83FEF261B370B2A3131052CF020E0CF
:1009C00030E040E050E02AC0B801A701022E04C088
:1009D00076956795579547950A94D2F781E090E010
:1009E000A0E0B0E004C0880F991FAA1FBB1F2A9582
:1009F000D2F70197A109B1098E219F21A023B1232C
:100A00000097A105B10521F081E090E0A0E0B0E001
:100A10009A01AB01282B392B4A2B5B2BDA01C90138
:100A20008F779070A070B07080349105A105B105EA
:100A300039F427FF09C0205C3F4F4F4F5F4F04C080
:100A4000215C3F4F4F4F5F4FE0E0F0E02030A0E0EF
:100A50003A07A0E04A07A0E45A0710F0E1E0F0E00E
:100A600079018A0127C06038710564F5FB01E158FE
:100A7000FF4FD801C7018F779070A070B07080349D
:100A80009105A105B10539F4E7FE0DC080E490E0C1
:100A9000A0E0B0E004C08FE390E0A0E0B0E0E80E9A
:100AA000F91E0A1F1B1F17FF05C016950795F7941F
:100AB000E794319687E016950795F794E7948A9521
:100AC000D1F705C0EE24FF248701EFEFF0E06E2F91
:100AD000679566276795902F9F77D794DD24D794E5
:100AE0008E2F8695492F462B582F5D29B701CA01B5
:100AF0001F910F91FF90EF90DF900895FC01DB01B3
:100B0000408151812281622F6F7770E0221F22275E
:100B1000221F9381892F880F822B282F30E0991F65
:100B20009927991F11969C93119721153105A9F5C5
:100B3000411551056105710511F482E037C082E865
:100B40009FEF13969C938E9312979A01AB0167E0E7
:100B5000220F331F441F551F6A95D1F783E08C93F2
:100B60000DC0220F331F441F551F12968D919C916B
:100B70001397019713969C938E931297203080E0E1
:100B8000380780E0480780E4580758F314962D93FF
:100B90003D934D935C93179708952F3F310579F45A
:100BA000411551056105710519F484E08C93089590
:100BB00064FF03C081E08C9312C01C9210C02F57B9
:100BC000304013963C932E93129783E08C9387E0EA
:100BD000440F551F661F771F8A95D1F770641496CE
:100BE0004D935D936D937C93179708951F93DC014C
:100BF000FB019C91923008F447C08081823008F458
:100C000043C0943051F411961C91843099F5818140
:100C1000682F70E0611B71093FC0843021F0923071
:100C200031F48230B9F18181882389F12DC0119688
:100C30001C9111978230F1F081811817D9F4129626
:100C40002D913C911397828193818217930794F0A1
:100C500028173907BCF014968D919D910D90BC9189
:100C6000A02D2481358146815781281739074A07ED
:100C70005B0718F4112341F00AC082179307A407F9
:100C8000B50740F4112319F061E070E005C06FEF83
:100C90007FEF02C060E070E0CB011F910895DF9309
:100CA000CF93CDB7DEB7A7E2B0E0E7E2F0E0808116
:100CB00080648C93A7E2B0E0E7E2F0E080818F7778
:100CC0008C93A6E2B0E0E6E2F0E080818E7F8C9328
:100CD000A6E2B0E0E6E2F0E080818D7F8C93A6E2B0
:100CE000B0E0E6E2F0E080818B7F8C93A7E2B0E099
:100CF000E7E2F0E0808180628C93A6E2B0E0E6E279
:100D0000F0E080818F7E8C93A6E2B0E0E6E2F0E036
:100D10008081877F8C93A6E2B0E0E6E2F0E08081FC
:100D200080688C93CF91DF910895DF93CF93CDB7F7
:100D3000DEB7A6E2B0E0E6E2F0E0808188608C9366
:100D4000CF91DF910895DF93CF93CDB7DEB7A6E2C1
:100D5000B0E0E6E2F0E08081877F8C93CF91DF9175
:100D60000895DF93CF9300D0CDB7DEB79A83898300
:100D700089819A8190937201809371010F900F90F5
:100D8000CF91DF910895DF93CF93CDB7DEB7A6E281
:100D9000B0E0E6E2F0E0808180688C93CF91DF9153
:100DA0000895DF93CF93CDB7DEB7A6E2B0E0E6E2D9
:100DB000F0E080818F778C93CF91DF910895DF935E
:100DC000CF9300D000D0CDB7DEB789837B836A8311
:100DD000A7E2B0E0E7E2F0E08081807E8C93A7E2BA
:100DE000B0E0E7E2F0E090818981892B8C93A6E264
:100DF000B0E0E6E2F0E0808180648C93E6E2F0E02F
:100E00008081869586958695882F90E08170907078
:100E1000882311F01C821AC0E6E2F0E080818295FE
:100E20008F70882F90E0817090700097A9F3A6E2F0
:100E3000B0E0E6E2F0E0808180618C93E5E2F0E0F2
:100E40008081EA81FB81808381E08C838C810F909B
:100E50000F900F900F90CF91DF910895DF93CF9374
:100E6000CDB7DEB7E5E2F0E08081CF91DF91089564
:100E70001F920F920FB60F9211242F933F934F930F
:100E80005F936F937F938F939F93AF93BF93EF93F2
:100E9000FF93DF93CF93CDB7DEB7E0917101F0916F
:100EA00072010995CF91DF91FF91EF91BF91AF91C1
:100EB0009F918F917F916F915F914F913F912F9172
:100EC0000F900FBE0F901F901895DF93CF93CDB763
:100ED000DEB7EAE3F0E08FEF8083E7E3F0E08FEF47
:100EE0008083E4E3F0E08FEF8083E1E3F0E08FEFD5
:100EF0008083CF91DF910895DF93CF9300D0CDB75A
:100F0000DEB789836A838981883058F58A81813088
:100F1000A1F4ABE3B0E0EBE3F0E08081482F8981FE
:100F2000282F30E081E090E0022E02C0880F991F48
:100F30000A94E2F7842B8C9314C0ABE3B0E0EBE3AC
:100F4000F0E08081482F8981282F30E081E090E017
:100F5000022E02C0880F991F0A94E2F7809584231D
:100F60008C938981883088F18981803170F58981FD
:100F7000885089838A818130A1F4A8E3B0E0E8E356
:100F8000F0E08081482F8981282F30E081E090E0D7
:100F9000022E02C0880F991F0A94E2F7842B8C93CB
:100FA00014C0A8E3B0E0E8E3F0E08081482F898135
:100FB000282F30E081E090E0022E02C0880F991FB8
:100FC0000A94E2F7809584238C938981803188F19B
:100FD0008981883170F58981805189838A81813046
:100FE000A1F4A5E3B0E0E5E3F0E08081482F89813A
:100FF000282F30E081E090E0022E02C0880F991F78
:101000000A94E2F7842B8C9314C0A5E3B0E0E5E3E7
:10101000F0E08081482F8981282F30E081E090E046
:10102000022E02C0880F991F0A94E2F7809584234C
:101030008C938981883188F18981803270F589812A
:10104000885189838A818130A1F4A2E3B0E0E2E390
:10105000F0E08081482F8981282F30E081E090E006
:10106000022E02C0880F991F0A94E2F7842B8C93FA
:1010700014C0A2E3B0E0E2E3F0E08081482F898170
:10108000282F30E081E090E0022E02C0880F991FE7
:101090000A94E2F7809584238C930F900F90CF9160
:1010A000DF910895DF93CF9300D0CDB7DEB78A8369
:1010B0008A818830C0F4E9E3F0E08081282F30E0B5
:1010C0008A81882F90E0A90102C0559547958A959D
:1010D000E2F7CA01817089838981813019F481E046
:1010E000898301C019828A818830F0F08A81803139
:1010F000D8F48A8188508A83E6E3F0E08081282F43
:1011000030E08A81882F90E0A90102C0559547956B
:101110008A95E2F7CA01817089838981813019F447
:1011200081E0898301C019828A818031F0F08A814F
:101130008831D8F48A8180518A83E3E3F0E08081AA
:10114000282F30E08A81882F90E0A90102C05595B0
:1011500047958A95E2F7CA01817089838981813038
:1011600019F481E0898301C019828A818831F0F005
:101170008A818032D8F48A8188518A83E0E3F0E062
:101180008081282F30E08A81882F90E0A90102C059
:10119000559547958A95E2F7CA01817089838981BF
:1011A000813019F481E0898301C0198289810F900F
:1011B0000F90CF91DF9108951F920F920FB60F926B
:1011C00011242F933F934F935F936F937F938F934C
:1011D0009F93AF93BF93EF93FF93DF93CF93CDB7DD
:1011E000DEB7E0916801F09169010995CF91DF9137
:1011F000FF91EF91BF91AF919F918F917F916F91EF
:101200005F914F913F912F910F900FBE0F901F90C4
:101210001895DF93CF93CDB7DEB7A5E5B0E0E5E550
:10122000F0E0808181608C93A5E5B0E0E5E5F0E039
:1012300080818D7F8C93ABE5B0E0EBE5F0E08081C1
:101240008F7B8C93AAE5B0E0EAE5F0E080818064D2
:101250008C93CF91DF910895DF93CF9300D0CDB7DA
:10126000DEB79A83898389819A81909369018093FB
:1012700068010F900F90CF91DF910895DF93CF9386
:10128000CDB7DEB7ABE5B0E0EBE5F0E080818064A0
:101290008C93CF91DF910895DF93CF93CDB7DEB7D5
:1012A000ABE5B0E0EBE5F0E080818F7B8C93CF91F4
:1012B000DF9108950F931F93DF93CF93CDB7DEB7E0
:1012C000C956D0400FB6F894DEBF0FBECDBF0E9406
:1012D0006507FE01E959FF4F1082FE01EA59FF4FF1
:1012E0001082FE01EB59FF4F10820E948C190E9460
:1012F0004F060E941B1B9E0127593F4F80E0B901FA
:101300000E94DF06FE01E759FF4F8081882F90E0A1
:10131000A0E0B0E028E833E140E050E0BC01CD01BE
:101320000E948A1BDC01CB01892F9A2FAB2FBB2790
:10133000FE01ED59FF4F918380830E94011AFE0147
:10134000E859FF4F8083FE01E859FF4F80818133C8
:1013500049F40E946E0E0E94C80E80E690E00E9442
:10136000101AC9CFFE01E859FF4F8081823349F43A
:101370000E947D0E0E94D70E8FE690E00E94101A08
:10138000BACFFE01E859FF4F8081833349F40E94B0
:101390008C0E0E94E60E8FE790E00E94101AABCFF1
:1013A000FE01E859FF4F8081843349F40E946E0E9C
:1013B0000E94E60E8AE890E00E94101A9CCFFE017F
:1013C000E859FF4F8081853349F40E948C0E0E94BA
:1013D000C80E86E990E00E94101A8DCFFE01E859F0
:1013E000FF4F8081873309F0C1C0FE01EA59FF4FEA
:1013F00081E0808383EA90E00E94101A0E94400FEF
:10140000FE01E15AFF4F80E090E0AAEFB4E4808350
:101410009183A283B3838E01055A1F4FFE01E15AC7
:10142000FF4F608171818281938120E030E04AEF3B
:1014300054E40E941F02DC01CB01F80180839183F8
:10144000A283B383FE01E55AFF4F608171818281DF
:10145000938120E030E040E85FE30E942504882388
:1014600044F4FE01E75AFF4F81E090E091838083CE
:1014700064C0FE01E55AFF4F6081718182819381D2
:1014800020E03FEF4FE757E40E94C50318160CF029
:1014900043C0FE01E15AFF4F6081718182819381D7
:1014A00020E030E040E251E40E941F02DC01CB0169
:1014B0008E01075A1F4FBC01CD010E944900DC017B
:1014C000CB01F801918380831FC0FE01E95AFF4FD1
:1014D00088EC90E091838083FE01E95AFF4F808180
:1014E00091810197F1F7FE01E95AFF4F91838083C3
:1014F000DE01A75ABF4FFE01E75AFF4F808191815D
:10150000019711969C938E93FE01E75AFF4F8081BD
:1015100091810097D1F627C08E01075A1F4FFE0117
:10152000E55AFF4F60817181828193810E94490059
:10153000DC01CB01F80191838083DE01AB5ABF4F00
:10154000FE01E75AFF4F808191818D939C93FE01AC
:10155000EB5AFF4F808191810197F1F7FE01EB5A21
:10156000FF4F918380830E940816C5CEFE01E85983
:10157000FF4F8081883309F05CC181EB90E00E94CD
:10158000101AFE01EA59FF4F8081813009F0BCC07A
:101590000E94F810FE01EF5AFF4F80E090E0AAEFA2
:1015A000B4E480839183A283B3838E01035B1F4FD6
:1015B000FE01EF5AFF4F608171818281938120E0AB
:1015C00030E04AEF54E40E941F02DC01CB01F80135
:1015D00080839183A283B383FE01E35BFF4F60812D
:1015E00071818281938120E030E040E85FE30E94D6
:1015F0002504882344F4FE01E55BFF4F81E090E081
:101600009183808364C0FE01E35BFF4F6081718141
:101610008281938120E03FEF4FE757E40E94C503AA
:1016200018160CF043C0FE01EF5AFF4F6081718124
:101630008281938120E030E040E251E40E941F0269
:10164000DC01CB018E01055B1F4FBC01CD010E9467
:101650004900DC01CB01F801918380831FC0FE01AA
:10166000E75BFF4F88EC90E091838083FE01E75BAE
:10167000FF4F808191810197F1F7FE01E75BFF4FFA
:1016800091838083DE01A55BBF4FFE01E55BFF4FC9
:1016900080819181019711969C938E93FE01E55B69
:1016A000FF4F808191810097D1F627C08E01055BA5
:1016B0001F4FFE01E35BFF4F608171818281938147
:1016C0000E944900DC01CB01F80191838083DE0197
:1016D000A95BBF4FFE01E55BFF4F808191818D9338
:1016E0009C93FE01E95BFF4F808191810197F1F7A7
:1016F000FE01E95BFF4F918380830E940816FE0183
:10170000EA59FF4F1082F7CDFE01E959FF4F808162
:10171000813009F0F0CD0E94400FFE01ED5BFF4FDC
:1017200080E090E0AAEFB4E480839183A283B38346
:101730008E01015C1F4FFE01ED5BFF4F60817181E7
:101740008281938120E030E04AEF54E40E941F023E
:10175000DC01CB01F80180839183A283B383FE0176
:10176000FF96608171818281938120E030E040E8C2
:101770005FE30E94250488232CF481E090E09EAF73
:101780008DAF46C0FE01FF96608171818281938199
:1017900020E03FEF4FE757E40E94C503181664F5B9
:1017A000FE01ED5BFF4F608171818281938120E0BA
:1017B00030E040E251E40E941F02DC01CB01BC0199
:1017C000CD010E944900DC01CB019EAF8DAF0FC05F
:1017D00088EC90E09CAF8BAF8BAD9CAD0197F1F79F
:1017E0009CAF8BAF8DAD9EAD01979EAF8DAF8DAD94
:1017F0009EAD009769F716C0FE01FF96608171816A
:10180000828193810E944900DC01CB019EAF8DAFA4
:101810008DAD9EAD9AAF89AF89AD9AAD0197F1F7C5
:101820009AAF89AF0E940816FE01E959FF4F108256
:1018300062CDFE01E859FF4F8081893371F4FE01CA
:10184000E959FF4F81E0808388EC90E00E94101AF4
:101850000E94F8100E9408164ECDFE01E859FF4F75
:101860008081853549F487ED90E00E94101A0E942E
:1018700013160E9465193FCDFE01E859FF4F808184
:10188000843449F48AEE90E00E94101A0E94BC173A
:101890000E94651930CDFE01E859FF4F80818033E9
:1018A00009F0F1C10E94220F80E090E8ABE3B5E4BB
:1018B0008DAB9EABAFABB8AF6DA97EA98FA998AD2C
:1018C00020E030E04AEF54E40E941F02DC01CB012B
:1018D00089AB9AABABABBCAB69A97AA98BA99CA924
:1018E00020E030E040E85FE30E94250488232CF4E8
:1018F00081E090E098AB8FA73FC069A97AA98BA936
:101900009CA920E03FEF4FE757E40E94C50318165B
:101910004CF56DA97EA98FA998AD20E030E040E29A
:1019200051E40E941F02DC01CB01BC01CD010E94E9
:101930004900DC01CB0198AB8FA70FC088EC90E089
:101940009EA78DA78DA59EA50197F1F79EA78DA7B0
:101950008FA598A9019798AB8FA78FA598A90097F5
:1019600069F714C069A97AA98BA99CA90E944900AA
:10197000DC01CB0198AB8FA78FA598A99CA78BA75B
:101980008BA59CA50197F1F79CA78BA70E94310F0F
:1019900080E090E8ABE3B5E48FA398A7A9A7BAA726
:1019A0006FA178A589A59AA520E030E04AEF54E41C
:1019B0000E941F02DC01CB018BA39CA3ADA3BEA39D
:1019C0006BA17CA18DA19EA120E030E040E85FE307
:1019D0000E94250488232CF481E090E09AA389A337
:1019E0003FC06BA17CA18DA19EA120E03FEF4FE7FE
:1019F00057E40E94C50318164CF56FA178A589A578
:101A00009AA520E030E040E251E40E941F02DC0190
:101A1000CB01BC01CD010E944900DC01CB019AA39E
:101A200089A30FC088EC90E098A38F8F8F8D98A129
:101A30000197F1F798A38F8F89A19AA101979AA393
:101A400089A389A19AA1009769F714C06BA17CA111
:101A50008DA19EA10E944900DC01CB019AA389A31C
:101A600089A19AA19E8F8D8F8D8D9E8D0197F1F703
:101A70009E8F8D8FFE01EA59FF4F8081813009F0E2
:101A80007BC00E94F81080E090E0AAEFB4E4898F58
:101A90009A8FAB8FBC8F698D7A8D8B8D9C8D20E05A
:101AA00030E04AEF54E40E941F02DC01CB018D8B31
:101AB0009E8BAF8BB88F6D897E898F89988D20E042
:101AC00030E040E85FE30E94250488232CF481E0A5
:101AD00090E09C8B8B8B3FC06D897E898F89988D20
:101AE00020E03FEF4FE757E40E94C50318164CF57E
:101AF000698D7A8D8B8D9C8D20E030E040E251E441
:101B00000E941F02DC01CB01BC01CD010E944900F3
:101B1000DC01CB019C8B8B8B0FC088EC90E09A8B07
:101B2000898B89899A890197F1F79A8B898B8B899F
:101B30009C8901979C8B8B8B8B899C89009769F77B
:101B400014C06D897E898F89988D0E944900DC01BF
:101B5000CB019C8B8B8B8B899C89988B8F878F85F6
:101B600098890197F1F7988B8F870E940816FE01DC
:101B7000EA59FF4F1082BFCBFE01E959FF4F808128
:101B8000813009F07BC00E94400F80E090E0AAEF16
:101B9000B4E48B879C87AD87BE876B857C858D85FC
:101BA0009E8520E030E04AEF54E40E941F02DC01F1
:101BB000CB018F839887A987BA876F8178858985BC
:101BC0009A8520E030E040E85FE30E942504882306
:101BD0002CF481E090E09E838D833FC06F817885F7
:101BE00089859A8520E03FEF4FE757E40E94C503BF
:101BF00018164CF56B857C858D859E8520E030E040
:101C000040E251E40E941F02DC01CB01BC01CD0186
:101C10000E944900DC01CB019E838D830FC088ECBC
:101C200090E09C838B838B819C810197F1F79C834F
:101C30008B838D819E8101979E838D838D819E8173
:101C4000009769F714C06F81788589859A850E940D
:101C50004900DC01CB019E838D838D819E819A8317
:101C6000898389819A810197F1F79A8389830E94F8
:101C70000816FE01E959FF4F10823DCB8FEF90E02F
:101C80000E94101A38CBFE01E859FF4F808188343A
:101C900041F48FEF0E940D1B85E191E00E94101A24
:101CA0002ACBFE01E859FF4F80818D3441F486EE46
:101CB0000E940D1B8CE291E00E94101A1CCBFE01C9
:101CC000E859FF4F80818C3409F015CB8CED0E94D0
:101CD0000D1B85E491E00E94101A0DCBDF93CF938A
:101CE000CDB7DEB787E061E00E947C0786E060E068
:101CF0000E947C07CF91DF910895DF93CF93CDB7FA
:101D0000DEB787E060E00E947C0786E061E00E9429
:101D10007C07CF91DF910895DF93CF93CDB7DEB7E6
:101D200087E060E00E947C0786E060E00E947C071C
:101D3000CF91DF910895DF93CF93CDB7DEB787E0E2
:101D400061E00E947C0786E060E00E947C07CF9102
:101D5000DF910895DF93CF93CDB7DEB787E060E0E2
:101D60000E947C0786E061E00E947C07CF91DF91B2
:101D70000895DF93CF93CDB7DEB787E060E00E9490
:101D80007C0786E060E00E947C07CF91DF91089598
:101D9000DF93CF93CDB7DEB787E161E00E947C0788
:101DA00086E160E00E947C07CF91DF910895DF9388
:101DB000CF93CDB7DEB787E160E00E947C0786E174
:101DC00061E00E947C07CF91DF910895DF93CF936C
:101DD000CDB7DEB787E160E00E947C0786E160E076
:101DE0000E947C07CF91DF910895DF93CF93CDB709
:101DF000DEB787E161E00E947C0786E160E00E9437
:101E00007C07CF91DF910895DF93CF93CDB7DEB7F5
:101E100087E160E00E947C0786E161E00E947C0728
:101E2000CF91DF910895DF93CF93CDB7DEB787E1F0
:101E300060E00E947C0786E160E00E947C07CF9111
:101E4000DF910895DF93CF93CDB7DEB78EE161E0E8
:101E50000E947C078FE160E00E947C07CF91DF91B8
:101E60000895DF93CF93CDB7DEB78EE160E00E9497
:101E70007C078FE160E00E947C07CF91DF9108959D
:101E8000DF93CF93CDB7DEB7E2970FB6F894DEBFFE
:101E90000FBECDBF10926E0110926D0110926C01B9
:101EA00010926B018AE061E00E947C071AAA19AACD
:101EB0008FC189E061E00E947C0780E090E0AAEF9A
:101EC000B4E48DA79EA7AFA7B8AB6DA57EA58FA5DF
:101ED00098A92BEA3AEA4AE250E40E941F02DC0188
:101EE000CB0189A79AA7ABA7BCA769A57AA58BA5A3
:101EF0009CA520E030E040E85FE30E9425048823B1
:101F00001CF481E088A791C069A57AA58BA59CA542
:101F100020E030E04FE753E40E94C50318160CF0B0
:101F20007BC06DA57EA58FA598A920E030E04AE78B
:101F300054E40E941903DC01CB018CA39DA3AEA342
:101F4000BFA36CA17DA18EA19FA120E030E04AEF4C
:101F500054E40E941F02DC01CB0188A399A3AAA329
:101F6000BBA368A179A18AA19BA120E030E040E851
:101F70005FE30E94250488232CF481E090E09F8F8A
:101F80008E8F3FC068A179A18AA19BA120E03FEF7D
:101F90004FE757E40E94C50318164CF56CA17DA1CC
:101FA0008EA19FA120E030E040E251E40E941F0298
:101FB000DC01CB01BC01CD010E944900DC01CB0159
:101FC0009F8F8E8F0FC088EC90E09D8F8C8F8C8DB3
:101FD0009D8D0197F1F79D8F8C8F8E8D9F8D019731
:101FE0009F8F8E8F8E8D9F8D009769F724C068A17B
:101FF00079A18AA19BA10E944900DC01CB019F8F9E
:102000008E8F8E8D9F8D9B8F8A8F8A8D9B8D019752
:10201000F1F79B8F8A8F0FC069A57AA58BA59CA528
:102020000E944900DC01CB0188A788A5898F898D92
:102030008A95F1F7898F89E060E00E947C0780E053
:1020400090E0AAEFB4E48D8B9E8BAF8BB88F6D8937
:102050007E898F89988D2BEA3AEA4AE250E40E9401
:102060001F02DC01CB01898B9A8BAB8BBC8B6989FE
:102070007A898B899C8920E030E040E85FE30E9408
:10208000250488231CF481E0888B91C069897A89B2
:102090008B899C8920E030E04FE753E40E94C50320
:1020A00018160CF07BC06D897E898F89988D20E091
:1020B00030E04AE754E40E941903DC01CB018C872D
:1020C0009D87AE87BF876C857D858E859F8520E047
:1020D00030E04AEF54E40E941F02DC01CB01888704
:1020E0009987AA87BB87688579858A859B8520E043
:1020F00030E040E85FE30E94250488232CF481E06F
:1021000090E09F838E833FC0688579858A859B8513
:1021100020E03FEF4FE757E40E94C50318164CF547
:102120006C857D858E859F8520E030E040E251E41E
:102130000E941F02DC01CB01BC01CD010E944900BD
:10214000DC01CB019F838E830FC088EC90E09D83E0
:102150008C838C819D810197F1F79D838C838E8187
:102160009F8101979F838E838E819F81009769F75E
:1021700024C0688579858A859B850E944900DC0199
:10218000CB019F838E838E819F819B838A838A81EB
:102190009B810197F1F79B838A830FC069897A89B4
:1021A0008B899C890E944900DC01CB01888B88893E
:1021B000898389818A95F1F7898389A99AA990935E
:1021C0006E0180936D0189A99AA901969AAB89AB9A
:1021D00089A99AA924E0803B920708F46ACEE29686
:1021E0000FB6F894DEBF0FBECDBFCF91DF9108953B
:1021F000DF93CF93CDB7DEB7E2970FB6F894DEBF8B
:102200000FBECDBF10926C0110926B0110926E0147
:1022100010926D018AE060E00E947C071AAA19AA58
:102220008FC189E061E00E947C0780E090E0AAEF26
:10223000B4E48DA79EA7AFA7B8AB6DA57EA58FA56B
:1022400098A92BEA3AEA4AE250E40E941F02DC0114
:10225000CB0189A79AA7ABA7BCA769A57AA58BA52F
:102260009CA520E030E040E85FE30E94250488233D
:102270001CF481E088A791C069A57AA58BA59CA5CF
:1022800020E030E04FE753E40E94C50318160CF03D
:102290007BC06DA57EA58FA598A920E030E04AE718
:1022A00054E40E941903DC01CB018CA39DA3AEA3CF
:1022B000BFA36CA17DA18EA19FA120E030E04AEFD9
:1022C00054E40E941F02DC01CB0188A399A3AAA3B6
:1022D000BBA368A179A18AA19BA120E030E040E8DE
:1022E0005FE30E94250488232CF481E090E09F8F17
:1022F0008E8F3FC068A179A18AA19BA120E03FEF0A
:102300004FE757E40E94C50318164CF56CA17DA158
:102310008EA19FA120E030E040E251E40E941F0224
:10232000DC01CB01BC01CD010E944900DC01CB01E5
:102330009F8F8E8F0FC088EC90E09D8F8C8F8C8D3F
:102340009D8D0197F1F79D8F8C8F8E8D9F8D0197BD
:102350009F8F8E8F8E8D9F8D009769F724C068A107
:1023600079A18AA19BA10E944900DC01CB019F8F2A
:102370008E8F8E8D9F8D9B8F8A8F8A8D9B8D0197DF
:10238000F1F79B8F8A8F0FC069A57AA58BA59CA5B5
:102390000E944900DC01CB0188A788A5898F898D1F
:1023A0008A95F1F7898F89E060E00E947C0780E0E0
:1023B00090E0AAEFB4E48D8B9E8BAF8BB88F6D89C4
:1023C0007E898F89988D2BEA3AEA4AE250E40E948E
:1023D0001F02DC01CB01898B9A8BAB8BBC8B69898B
:1023E0007A898B899C8920E030E040E85FE30E9495
:1023F000250488231CF481E0888B91C069897A893F
:102400008B899C8920E030E04FE753E40E94C503AC
:1024100018160CF07BC06D897E898F89988D20E01D
:1024200030E04AE754E40E941903DC01CB018C87B9
:102430009D87AE87BF876C857D858E859F8520E0D3
:1024400030E04AEF54E40E941F02DC01CB01888790
:102450009987AA87BB87688579858A859B8520E0CF
:1024600030E040E85FE30E94250488232CF481E0FB
:1024700090E09F838E833FC0688579858A859B85A0
:1024800020E03FEF4FE757E40E94C50318164CF5D4
:102490006C857D858E859F8520E030E040E251E4AB
:1024A0000E941F02DC01CB01BC01CD010E9449004A
:1024B000DC01CB019F838E830FC088EC90E09D836D
:1024C0008C838C819D810197F1F79D838C838E8114
:1024D0009F8101979F838E838E819F81009769F7EB
:1024E00024C0688579858A859B850E944900DC0126
:1024F000CB019F838E838E819F819B838A838A8178
:102500009B810197F1F79B838A830FC069897A8940
:102510008B899C890E944900DC01CB01888B8889CA
:10252000898389818A95F1F7898389A99AA99093EA
:102530006C0180936B0189A99AA901969AAB89AB2A
:1025400089A99AA924E0803B920708F46ACEE29612
:102550000FB6F894DEBF0FBECDBFCF91DF910895C7
:10256000DF93CF93CDB7DEB7E0970FB6F894DEBF19
:102570000FBECDBF91C18AE060E00E947C0789E078
:1025800061E00E947C0780E090E0AAEFB4E48DA7B0
:102590009EA7AFA7B8AB6DA57EA58FA598A92BEA7E
:1025A0003AEA4AE250E40E941F02DC01CB0189A70B
:1025B0009AA7ABA7BCA769A57AA58BA59CA520E087
:1025C00030E040E85FE30E94250488231CF481E0AA
:1025D00088A791C069A57AA58BA59CA520E030E0CD
:1025E0004FE753E40E94C50318160CF07BC06DA59D
:1025F0007EA58FA598A920E030E04AE754E40E9428
:102600001903DC01CB018CA39DA3AEA3BFA36CA1D6
:102610007DA18EA19FA120E030E04AEF54E40E940A
:102620001F02DC01CB0188A399A3AAA3BBA368A1C5
:1026300079A18AA19BA120E030E040E85FE30E94FD
:10264000250488232CF481E090E09F8F8E8F3FC07B
:1026500068A179A18AA19BA120E03FEF4FE757E451
:102660000E94C50318164CF56CA17DA18EA19FA1F7
:1026700020E030E040E251E40E941F02DC01CB0187
:10268000BC01CD010E944900DC01CB019F8F8E8FE0
:102690000FC088EC90E09D8F8C8F8C8D9D8D019765
:1026A000F1F79D8F8C8F8E8D9F8D01979F8F8E8FD1
:1026B0008E8D9F8D009769F724C068A179A18AA1AA
:1026C0009BA10E944900DC01CB019F8F8E8F8E8DD4
:1026D0009F8D9B8F8A8F8A8D9B8D0197F1F79B8FA2
:1026E0008A8F0FC069A57AA58BA59CA50E94490079
:1026F000DC01CB0188A788A5898F898D8A95F1F7A0
:10270000898F89E060E00E947C0780E090E0AAEF7A
:10271000B4E48D8B9E8BAF8BB88F6D897E898F894A
:10272000988D2BEA3AEA4AE250E40E941F02DC014B
:10273000CB01898B9A8BAB8BBC8B69897A898B890E
:102740009C8920E030E040E85FE30E942504882374
:102750001CF481E0888B91C069897A898B899C8976
:1027600020E030E04FE753E40E94C50318160CF058
:102770007BC06D897E898F89988D20E030E04AE7A3
:1027800054E40E941903DC01CB018C879D87AE873E
:10279000BF876C857D858E859F8520E030E04AEF80
:1027A00054E40E941F02DC01CB0188879987AA8725
:1027B000BB87688579858A859B8520E030E040E885
:1027C0005FE30E94250488232CF481E090E09F833E
:1027D0008E833FC0688579858A859B8520E03FEFA1
:1027E0004FE757E40E94C50318164CF56C857D85AC
:1027F0008E859F8520E030E040E251E40E941F0278
:10280000DC01CB01BC01CD010E944900DC01CB0100
:102810009F838E830FC088EC90E09D838C838C8196
:102820009D810197F1F79D838C838E819F81019714
:102830009F838E838E819F81009769F724C068856E
:1028400079858A859B850E944900DC01CB019F83A5
:102850008E838E819F819B838A838A819B8101974E
:10286000F1F79B838A830FC069897A898B899C8958
:102870000E944900DC01CB01888B8889898389818A
:102880008A95F1F7898380916D0190916E0101978E
:1028900090936E0180936D0180916D0190916E0116
:1028A000009709F068CEE0960FB6F894DEBF0FBE31
:1028B000CDBFCF91DF910895DF93CF93CDB7DEB732
:1028C000E0970FB6F894DEBF0FBECDBF8AE061E09F
:1028D0000E947C078DC189E061E00E947C0780E056
:1028E00090E0AAEFB4E48DA79EA7AFA7B8AB6DA503
:1028F0007EA58FA598A92BEA3AEA4AE250E40E9405
:102900001F02DC01CB0189A79AA7ABA7BCA769A5C9
:102910007AA58BA59CA520E030E040E85FE30E940B
:10292000250488231CF481E088A791C069A57AA5B5
:102930008BA59CA520E030E04FE753E40E94C5033F
:1029400018160CF07BC06DA57EA58FA598A920E078
:1029500030E04AE754E40E941903DC01CB018CA368
:102960009DA3AEA3BFA36CA17DA18EA19FA120E0DA
:1029700030E04AEF54E40E941F02DC01CB0188A33F
:1029800099A3AAA3BBA368A179A18AA19BA120E0D6
:1029900030E040E85FE30E94250488232CF481E0C6
:1029A00090E09F8F8E8F3FC068A179A18AA19BA1E3
:1029B00020E03FEF4FE757E40E94C50318164CF59F
:1029C0006CA17DA18EA19FA120E030E040E251E406
:1029D0000E941F02DC01CB01BC01CD010E94490015
:1029E000DC01CB019F8F8E8F0FC088EC90E09D8F14
:1029F0008C8F8C8D9D8D0197F1F79D8F8C8F8E8D97
:102A00009F8D01979F8F8E8F8E8D9F8D009769F779
:102A100024C068A179A18AA19BA10E944900DC0180
:102A2000CB019F8F8E8F8E8D9F8D9B8F8A8F8A8DEE
:102A30009B8D0197F1F79B8F8A8F0FC069A57AA5AF
:102A40008BA59CA50E944900DC01CB0188A788A525
:102A5000898F898D8A95F1F7898F89E060E00E94DE
:102A60007C0780E090E0AAEFB4E48D8B9E8BAF8B67
:102A7000B88F6D897E898F89988D2BEA3AEA4AE270
:102A800050E40E941F02DC01CB01898B9A8BAB8B37
:102A9000BC8B69897A898B899C8920E030E040E889
:102AA0005FE30E94250488231CF481E0888B91C099
:102AB00069897A898B899C8920E030E04FE753E46B
:102AC0000E94C50318160CF07BC06D897E898F8922
:102AD000988D20E030E04AE754E40E941903DC01BD
:102AE000CB018C879D87AE87BF876C857D858E8562
:102AF0009F8520E030E04AEF54E40E941F02DC0191
:102B0000CB0188879987AA87BB87688579858A855D
:102B10009B8520E030E040E85FE30E9425048823A5
:102B20002CF481E090E09F838E833FC06885798597
:102B30008A859B8520E03FEF4FE757E40E94C5035D
:102B400018164CF56C857D858E859F8520E030E0DC
:102B500040E251E40E941F02DC01CB01BC01CD0127
:102B60000E944900DC01CB019F838E830FC088EC5B
:102B700090E09D838C838C819D810197F1F79D83EB
:102B80008C838E819F8101979F838E838E819F810D
:102B9000009769F724C0688579858A859B850E949E
:102BA0004900DC01CB019F838E838E819F819B83B3
:102BB0008A838A819B810197F1F79B838A830FC067
:102BC00069897A898B899C890E944900DC01CB0143
:102BD000888B8889898389818A95F1F78983809197
:102BE0006B0190916C01019790936C0180936B0144
:102BF00080916B0190916C01009709F06CCEE0968A
:102C00000FB6F894DEBF0FBECDBFCF91DF91089510
:102C1000DF93CF93CDB7DEB789E060E00E947C07F9
:102C2000CF91DF910895DF93CF93CDB7DEB7E297D1
:102C30000FB6F894DEBF0FBECDBF8DE061E00E94FD
:102C40007C071AAA19AA89C18CE061E00E947C075E
:102C500080E090E0AAEFB4E48DA79EA7AFA7B8AB41
:102C60006DA57EA58FA598A92BEA3AEA4AE250E421
:102C70000E941F02DC01CB0189A79AA7ABA7BCA7C2
:102C800069A57AA58BA59CA520E030E040E85FE32C
:102C90000E94250488231CF481E088A791C069A5BF
:102CA0007AA58BA59CA520E030E04FE753E40E9475
:102CB000C50318160CF07BC06DA57EA58FA598A93D
:102CC00020E030E04AE754E40E941903DC01CB0124
:102CD0008CA39DA3AEA3BFA36CA17DA18EA19FA138
:102CE00020E030E04AEF54E40E941F02DC01CB01F7
:102CF00088A399A3AAA3BBA368A179A18AA19BA138
:102D000020E030E040E85FE30E94250488232CF4B3
:102D100081E090E09F8F8E8F3FC068A179A18AA14A
:102D20009BA120E03FEF4FE757E40E94C503181630
:102D30004CF56CA17DA18EA19FA120E030E040E286
:102D400051E40E941F02DC01CB01BC01CD010E94B5
:102D50004900DC01CB019F8F8E8F0FC088EC90E083
:102D60009D8F8C8F8C8D9D8D0197F1F79D8F8C8F12
:102D70008E8D9F8D01979F8F8E8F8E8D9F8D00974B
:102D800069F724C068A179A18AA19BA10E9449008A
:102D9000DC01CB019F8F8E8F8E8D9F8D9B8F8A8FB5
:102DA0008A8D9B8D0197F1F79B8F8A8F0FC069A544
:102DB0007AA58BA59CA50E944900DC01CB0188A7C0
:102DC00088A5898F898D8A95F1F7898F8CE060E0DD
:102DD0000E947C0780E090E0AAEFB4E48D8B9E8B8C
:102DE000AF8BB88F6D897E898F89988D2BEA3AEAEF
:102DF0004AE250E40E941F02DC01CB01898B9A8BCE
:102E0000AB8BBC8B69897A898B899C8920E030E007
:102E100040E85FE30E94250488231CF481E0888B4E
:102E200091C069897A898B899C8920E030E04FE7DD
:102E300053E40E94C50318160CF07BC06D897E898F
:102E40008F89988D20E030E04AE754E40E9419030E
:102E5000DC01CB018C879D87AE87BF876C857D8524
:102E60008E859F8520E030E04AEF54E40E941F02E7
:102E7000DC01CB0188879987AA87BB87688579851C
:102E80008A859B8520E030E040E85FE30E942504CE
:102E900088232CF481E090E09F838E833FC0688577
:102EA00079858A859B8520E03FEF4FE757E40E94B4
:102EB000C50318164CF56C857D858E859F8520E0B1
:102EC00030E040E251E40E941F02DC01CB01BC0172
:102ED000CD010E944900DC01CB019F838E830FC08E
:102EE00088EC90E09D838C838C819D810197F1F724
:102EF0009D838C838E819F8101979F838E838E819A
:102F00009F81009769F724C0688579858A859B85AC
:102F10000E944900DC01CB019F838E838E819F81BB
:102F20009B838A838A819B810197F1F79B838A83A4
:102F30000FC069897A898B899C890E944900DC01CC
:102F4000CB01888B8889898389818A95F1F7898368
:102F500089A99AA901969AAB89AB89A99AA98E3BAE
:102F6000910508F471CEE2960FB6F894DEBF0FBE5D
:102F7000CDBFCF91DF910895DF93CF93CDB7DEB76B
:102F8000E2970FB6F894DEBF0FBECDBF8DE060E0D4
:102F90000E947C071AAA19AA89C18CE061E00E94EC
:102FA0007C0780E090E0AAEFB4E48DA79EA7AFA7CE
:102FB000B8AB6DA57EA58FA598A92BEA3AEA4AE29F
:102FC00050E40E941F02DC01CB0189A79AA7ABA79E
:102FD000BCA769A57AA58BA59CA520E030E040E8B8
:102FE0005FE30E94250488231CF481E088A791C038
:102FF00069A57AA58BA59CA520E030E04FE753E4B6
:103000000E94C50318160CF07BC06DA57EA58FA588
:1030100098A920E030E04AE754E40E941903DC015B
:10302000CB018CA39DA3AEA3BFA36CA17DA18EA158
:103030009FA120E030E04AEF54E40E941F02DC012F
:10304000CB0188A399A3AAA3BBA368A179A18AA154
:103050009BA120E030E040E85FE30E942504882344
:103060002CF481E090E09F8F8E8F3FC068A179A102
:103070008AA19BA120E03FEF4FE757E40E94C503E0
:1030800018164CF56CA17DA18EA19FA120E030E027
:1030900040E251E40E941F02DC01CB01BC01CD01E2
:1030A0000E944900DC01CB019F8F8E8F0FC088ECFE
:1030B00090E09D8F8C8F8C8D9D8D0197F1F79D8F6A
:1030C0008C8F8E8D9F8D01979F8F8E8F8E8D9F8D74
:1030D000009769F724C068A179A18AA19BA10E94E9
:1030E0004900DC01CB019F8F8E8F8E8D9F8D9B8F32
:1030F0008A8F8A8D9B8D0197F1F79B8F8A8F0FC0E6
:1031000069A57AA58BA59CA50E944900DC01CB018D
:1031100088A788A5898F898D8A95F1F7898F8CE09A
:1031200060E00E947C0780E090E0AAEFB4E48D8B21
:103130009E8BAF8BB88F6D897E898F89988D2BEA96
:103140003AEA4AE250E40E941F02DC01CB01898B7B
:103150009A8BAB8BBC8B69897A898B899C8920E09F
:1031600030E040E85FE30E94250488231CF481E0FE
:10317000888B91C069897A898B899C8920E030E0AD
:103180004FE753E40E94C50318160CF07BC06D890D
:103190007E898F89988D20E030E04AE754E40E94D0
:1031A0001903DC01CB018C879D87AE87BF876C85B7
:1031B0007D858E859F8520E030E04AEF54E40E94B3
:1031C0001F02DC01CB0188879987AA87BB876885A6
:1031D00079858A859B8520E030E040E85FE30E94A6
:1031E000250488232CF481E090E09F838E833FC0E8
:1031F000688579858A859B8520E03FEF4FE757E416
:103200000E94C50318164CF56C857D858E859F85BB
:1032100020E030E040E251E40E941F02DC01CB01DB
:10322000BC01CD010E944900DC01CB019F838E834C
:103230000FC088EC90E09D838C838C819D810197E9
:10324000F1F79D838C838E819F8101979F838E836D
:103250008E819F81009769F724C0688579858A856A
:103260009B850E944900DC01CB019F838E838E8168
:103270009F819B838A838A819B810197F1F79B833E
:103280008A830FC069897A898B899C890E94490049
:10329000DC01CB01888B8889898389818A95F1F744
:1032A000898389A99AA901969AAB89AB89A99AA918
:1032B0008E3B910508F471CEE2960FB6F894DEBF0E
:1032C0000FBECDBFCF91DF910895DF93CF93CDB7E0
:1032D000DEB78CE060E00E947C07CF91DF9108951B
:1032E000DF93CF9300D0CDB7DEB79A8389838981EE
:1032F0009A819093700180936F010F900F90CF91FE
:10330000DF910895DF93CF93CDB7DEB7ECE2F0E025
:103310008081CF91DF910895DF93CF93CDB7DEB752
:10332000AAE2B0E0EAE2F0E0808180618C93AAE258
:10333000B0E0EAE2F0E0808188608C93AAE2B0E03D
:10334000EAE2F0E0808180688C93AAE2B0E0EAE2F1
:10335000F0E080818B7F8C93A0E4B0E0E0E4F0E0CB
:10336000808184608C93A0E4B0E0E0E4F0E08081B0
:1033700082608C93A0E4B0E0E0E4F0E080818F7B99
:103380008C93A0E4B0E0E0E4F0E080818F7D8C934A
:10339000A0E4B0E0E0E4F0E080818F7E8C93A0E4D4
:1033A000B0E0E0E4F0E08081877F8C93A0E4B0E0BF
:1033B000E0E4F0E080818E7F8C93E0E4F0E0108226
:1033C000E9E2F0E083E38083CF91DF910895DF931A
:1033D000CF930F92CDB7DEB78983EBE2F0E0808127
:1033E000829586958770882F90E081709070009705
:1033F000A1F3ECE2F0E0898180830F90CF91DF911F
:103400000895DF93CF93CDB7DEB7EBE2F0E0808194
:103410008823DCF7ECE2F0E08081CF91DF91089522
:10342000DF93CF9300D000D0CDB7DEB79C838B83E2
:103430001A8219820FC029813A818B819C81FC01FB
:10344000E20FF31F80810E94E71989819A8101961A
:103450009A83898329813A818B819C81FC01E20FC7
:10346000F31F8081882339F70F900F900F900F90F2
:10347000CF91DF9108951F920F920FB60F921124F2
:103480002F933F934F935F936F937F938F939F936C
:10349000AF93BF93EF93FF93DF93CF93CDB7DEB797
:1034A000E0916F01F09170010995CF91DF91FF914B
:1034B000EF91BF91AF919F918F917F916F915F91AC
:1034C0004F913F912F910F900FBE0F901F90189525
:1034D000DF93CF9300D00F92CDB7DEB79A83898365
:1034E0006B838B81882F90E0880F991FFC01EF5828
:1034F000FE4F89819A81918380830F900F900F9066
:10350000CF91DF9108951F920F920FB60F92112461
:103510002F933F934F935F936F937F938F939F93DB
:10352000AF93BF93EF93FF93DF93CF93CDB7DEB706
:10353000809164019091650101969093650180935B
:103540006401809164019091650127E0803D9207BC
:1035500061F4E0917101F091720109951092650199
:1035600010926401E2E5F0E01082CF91DF91FF91CB
:10357000EF91BF91AF919F918F917F916F915F91EB
:103580004F913F912F910F900FBE0F901F90189564
:103590001F920F920FB60F9211242F933F934F93C8
:1035A0005F936F937F938F939F93AF93BF93EF93AB
:1035B000FF93DF93CF93CDB7DEB7809166019091F3
:1035C000670101969093670180936601809166017F
:1035D0009091670127E0803D920761F4E0917301CB
:1035E000F091740109951092670110926601E2E56D
:1035F000F0E01082CF91DF91FF91EF91BF91AF91F9
:103600009F918F917F916F915F914F913F912F91FA
:103610000F900FBE0F901F901895DF93CF930F92CE
:10362000CDB7DEB78983ECE5F0E0898180830F9028
:10363000CF91DF910895DF93CF93CDB7DEB7A3E5A8
:10364000B0E0E3E5F0E08081877F8C93A3E5B0E014
:10365000E3E5F0E0808180648C93A3E5B0E0E3E5EE
:10366000F0E0808180628C93A3E5B0E0E3E5F0E0D8
:1036700080818F7E8C93A3E5B0E0E3E5F0E080816C
:103680008B7F8C93A3E5B0E0E3E5F0E0808182607E
:103690008C93A3E5B0E0E3E5F0E080818E7F8C932E
:1036A000CF91DF910895DF93CF93CDB7DEB7AAE531
:1036B000B0E0EAE5F0E080819181806811969C930A
:1036C0008E93AAE5B0E0EAE5F0E0808191818F7BFE
:1036D00011969C938E93AFE4B0E0EFE4F0E080812C
:1036E00082608C93AFE4B0E0EFE4F0E080818E7F05
:1036F0008C93AEE4B0E0EEE4F0E0808180618C93E6
:10370000AEE4B0E0EEE4F0E0808188608C93CF918D
:10371000DF910895629FD001739FF001829FE00DB9
:10372000F11D649FE00DF11D929FF00D839FF00D40
:10373000749FF00D659FF00D9927729FB00DE11DEC
:10374000F91F639FB00DE11DF91FBD01CF011124C9
:1037500008952F923F924F925F926F927F928F9235
:103760009F92AF92BF92CF92DF92EF92FF920F9310
:103770001F93CF93DF93CDB7DEB7CA1BDB0B0FB61A
:10378000F894DEBF0FBECDBF09942A8839884888D7
:103790005F846E847D848C849B84AA84B984C8846D
:1037A000DF80EE80FD800C811B81AA81B981CE0F64
:1037B000D11D0FB6F894DEBF0FBECDBFED01089549
:0437C000F894FFCFAB
:1037C400526F626F7420466F72776172640A00529E
:1037D4006F626F74204261636B776172640A005296
:1037E4006F626F74204F46460A00526F626F7420F6
:1037F4004C6566740A00526F626F74205269676880
:10380400740A005363616E6E696E67204C6566745A
:103814000052657475726E696E6720746F207468E7
:1038240065207374617274005363616E6E696E67B0
:10383400205269676874004163747561746F722003
:103844004D6F76696E6720557000416374756174BD
:103854006F72204D6F76696E6720446F776E0053E8
:10386400656C6563742070726F706572206F70741C
:10387400696F6E0A004D6F76696E672057697468C8
:103884002048696768205370656564004D6F7669E8
:103894006E672057697468204D656469756D20539F
:1038A40070656564004D6F76696E6720576974684A
:1038B400204C6F77205370656564000000000000A1
:0438C4000000000000
:00000001FF
